:100000000C942A000C943F000C943F000C943F0089
:100010000C943F000C943F000C943F000C943F0064
:100020000C943F000C943F000C943F000C943F0054
:100030000C943F000C943F000C943F000C943F0044
:100040000C943F000C943F000C943F000C943F0034
:100050000C943F0011241FBECFE5D8E0DEBFCDBF1A
:1000600011E0A0E6B0E0E6E7F0E402C005900D92F2
:10007000AC3EB107D9F70E94B21A0C9439200C9407
:100080000000EF92FF920F931F937B018C0120E001
:1000900030E040E05FE40E94ED0388238CF0C8016B
:1000A000B70120E030E040E05FE40E94B9010E9427
:1000B0004D049B01AC01205030404040504806C0E8
:1000C000C801B7010E944D049B01AC01B901CA01EE
:1000D0001F910F91FF90EF900895A0E0B0E0E3E74B
:1000E000F0E00C94611DDC012B01FA019C9192302F
:1000F00008F439C1EB018881823008F433C19430AF
:1001000069F4843009F02FC111969C91119789816F
:10011000981709F428C1A8ECB0E025C1843009F48F
:1001200021C18230A9F4923009F01DC19A01AD01BC
:1001300088E0EA010990AE01E90109929E0181502F
:10014000C1F7E201898111969C918923818308C1BD
:10015000923009F407C112962D903C901397EB0151
:100160008A819B811496AD90BD90CD90DC901797BD
:10017000EC80FD800E811F819101281B390BB90194
:1001800037FF04C066277727621B730B6032710547
:100190000CF061C0121613066CF537014801062EEB
:1001A00004C096948794779467940A94D2F721E0D8
:1001B00030E040E050E004C0220F331F441F551FC1
:1001C0006A95D2F721503040404050402E213F21C7
:1001D00040235123211531054105510521F021E02E
:1001E00030E040E050E079018A01E628F72808294C
:1001F00019293CC0232BD1F1260E371E35014601AB
:10020000062E04C096948794779467940A94D2F744
:1002100021E030E040E050E004C0220F331F441FD3
:10022000551F6A95D2F721503040404050402A2156
:100230003B214C215D21211531054105510521F05E
:1002400021E030E040E050E059016A01A628B728DB
:10025000C828D9280BC0821593052CF01C01AA24AC
:10026000BB24650103C0EE24FF24870111969C91F5
:10027000D20111968C91981709F445C0992339F051
:10028000A80197012A193B094C095D0906C0A6017E
:1002900095012E193F09400B510B57FD08C01182E3
:1002A0003382228224833583468357831DC081E0B5
:1002B00081833382228288279927DC01821B930B5A
:1002C000A40BB50B84839583A683B7830DC0220F3F
:1002D000331F441F551F24833583468357838281F0
:1002E000938101979383828324813581468157814D
:1002F000DA01C9010197A109B1098F5F9F4FAF4F83
:10030000BF4328F30BC0918333822282EA0CFB1C8B
:100310000C1D1D1DE482F5820683178383E0808314
:10032000248135814681578157FF1AC0C901AA2708
:1003300097FDA095BA2F81709070A070B0705695FF
:10034000479537952795822B932BA42BB52B848328
:100350009583A683B7838281938101969383828359
:10036000DF0101C0D201CD01CDB7DEB7E2E10C94CF
:100370007D1DA0E2B0E0EFEBF1E00C946D1D698310
:100380007A838B839C832D833E834F835887E9E058
:10039000EE2EF12CEC0EFD1ECE010196B7010E944F
:1003A0003E068E010F5E1F4FCE010596B8010E94DA
:1003B0003E068A8991E089278A8BC701B801AE0180
:1003C000475E5F4F0E946D000E946905A096E6E0BF
:1003D0000C94891DA0E2B0E0E0EFF1E00C946D1DFB
:1003E00069837A838B839C832D833E834F835887D5
:1003F000F9E0EF2EF12CEC0EFD1ECE010196B701B7
:100400000E943E068E010F5E1F4FCE010596B80179
:100410000E943E06C701B801AE01475E5F4F0E94D1
:100420006D000E946905A096E6E00C94891DA0E28B
:10043000B0E0EDE1F2E00C94611D69837A838B8377
:100440009C832D833E834F835887CE010196BE0146
:10045000675F7F4F0E943E06CE010596BE016F5E2C
:100460007F4F0E943E069985923088F089898230BC
:10047000C8F0943019F4823051F404C0843029F467
:10048000923081F488EC90E0C6C0923049F420E0CC
:100490009A858A89981321E02A87CE010996BBC0E4
:1004A000823049F420E09A858A89981321E02A8BCA
:1004B000CE014196B0C02D843E844F8458886D880B
:1004C0007E888F88988CEE24FF248701AA24BB2481
:1004D000650140E050E060E070E0E0E0F0E0C10184
:1004E00081709070892BE9F0E60CF71C081D191D2E
:1004F0009A01AB012A0D3B1D4C1D5D1D80E090E073
:10050000A0E0B0E0E614F7040805190520F481E046
:1005100090E0A0E0B0E0BA01A901480F591F6A1F9E
:100520007B1FAA0CBB1CCC1CDD1C97FE08C081E005
:1005300090E0A0E0B0E0A82AB92ACA2ADB2A3196C6
:10054000E032F10549F0660C771C881C991C569422
:10055000479437942794C3CFFA85EA892B893C893D
:100560008B859C85280F391F2E5F3F4F17C0CA010E
:1005700081709070892B61F016950795F794E79438
:1005800080E090E0A0E0B0E8E82AF92A0A2B1B2BD3
:1005900076956795579547952F5F3F4F77FDE7CF46
:1005A0000CC0440F551F661F771F17FD4160EE0CEE
:1005B000FF1C001F111F21503040403090E05907B0
:1005C00090E0690790E4790760F32B8F3C8FDB01A3
:1005D000CA018F779070A070B07080349105A1052A
:1005E000B10561F447FD0AC0E114F10401051105EC
:1005F00029F0405C5F4F6F4F7F4F40781A8EFE1797
:1006000011F081E08A8F4D8F5E8F6F8F78A383E02A
:10061000898FCE0149960E946905A096E2E10C946B
:100620007D1DA8E1B0E0E7E1F3E00C94691D69836A
:100630007A838B839C832D833E834F835887B9E0D5
:10064000EB2EF12CEC0EFD1ECE010196B7010E949F
:100650003E068E010F5E1F4FCE010596B8010E9427
:100660003E062985223008F47EC03989323010F4E4
:10067000B8017CC08A859A8989278A87243011F03D
:10068000223031F4231709F06EC068EC70E06EC0C0
:10069000343039F41D861E861F86188A1C861B86F8
:1006A00004C0323021F484E08987B7015FC02B8514
:1006B0003C858B899C89281B390B3C872B87ED84D3
:1006C000FE840F851889AD88BE88CF88D88CEA143F
:1006D000FB040C051D0540F4EE0CFF1C001F111F50
:1006E000215030403C872B8720E030E040E050E054
:1006F00080E090E0A0E0B0E460E070E0EA14FB0489
:100700000C051D0540F0282B392B4A2B5B2BEA18D2
:10071000FB080C091D09B695A79597958795EE0CD2
:10072000FF1C001F111F6F5F7F4F6F31710531F785
:10073000DA01C9018F779070A070B0708034910594
:10074000A105B10561F427FD0AC0E114F10401051A
:10075000110529F0205C3F4F4F4F5F4F20782D87C8
:100760003E874F87588BBE01675F7F4FCB010E944A
:1007700069056896EAE00C94851DA8E1B0E0E3EC19
:10078000F3E00C946D1D69837A838B839C832D83A6
:100790003E834F83588789E0E82EF12CEC0EFD1E36
:1007A000CE010196B7010E943E068E010F5E1F4FDB
:1007B000CE010596B8010E943E068985823040F040
:1007C0008989823028F0C701B8010E94B60601C0AD
:1007D0008FEF6896E6E00C94891DA8E1B0E0E3EFA6
:1007E000F3E00C946D1D69837A838B839C832D8346
:1007F0003E834F83588789E0E82EF12CEC0EFD1ED6
:10080000CE010196B7010E943E068E010F5E1F4F7A
:10081000CE010596B8010E943E068985823040F0DF
:100820008989823028F0C701B8010E94B60601C04C
:100830008FEF6896E6E00C94891DA8E1B0E0E3E252
:10084000F4E00C946D1D69837A838B839C832D83E4
:100850003E834F83588789E0E82EF12CEC0EFD1E75
:10086000CE010196B7010E943E068E010F5E1F4F1A
:10087000CE010596B8010E943E068985823040F07F
:100880008989823028F0C701B8010E94B60601C0EC
:1008900081E06896E6E00C94891DACE0B0E0E3E509
:1008A000F4E00C94711D69837A838B839C83CE0161
:1008B0000196BE016B5F7F4F0E943E068D818230A4
:1008C00061F1823050F1843021F48E81882351F11E
:1008D0002EC02F81388537FD20C06E812F31310524
:1008E0001CF06623F9F023C08EE190E0821B930B8D
:1008F00029853A854B855C8504C056954795379583
:1009000027958A95D2F76623B1F05095409530959A
:1009100021953F4F4F4F5F4F0EC020E030E040E049
:1009200050E009C02FEF3FEF4FEF5FE704C020E03A
:1009300030E040E050E8B901CA012C96E2E00C94A6
:100940008D1DA8E0B0E0E7EAF4E00C94691D7B019E
:100950008C01611571058105910519F482E0898387
:1009600060C083E089838EE1C82ED12CDC82CB82EB
:10097000ED82FE820F831887C801B7010E941A0515
:10098000FC013197F7FF3BC0222733272E1B3F0B7B
:1009900057016801022E04C0D694C794B794A79457
:1009A0000A94D2F740E050E060E070E081E090E02F
:1009B000A0E0B0E004C0880F991FAA1FBB1F2A95B2
:1009C000D2F70197A109B1098E219F21A023B1235C
:1009D0000097A105B10521F041E050E060E070E032
:1009E0004A295B296C297D294D835E836F83788733
:1009F0008EE190E08E1B9F0B9C838B8312C03097FF
:100A000081F00E2E04C0EE0CFF1C001F111F0A9473
:100A1000D2F7ED82FE820F831887CE1ADF0ADC82BE
:100A2000CB821A82CE0101960E9469052896EAE0DF
:100A30000C94851DEF92FF920F931F937B018C0105
:100A400080E0E81680E0F80681E0080780E01807FB
:100A500088F48FEFE816F1040105110531F028F054
:100A600088E090E0A0E0B0E017C080E090E0A0E077
:100A7000B0E012C080E0E81680E0F80680E00807E9
:100A800081E0180728F088E190E0A0E0B0E004C021
:100A900080E190E0A0E0B0E020E230E040E050E013
:100AA000281B390B4A0B5B0B04C016950795F7946E
:100AB000E7948A95D2F7F701E053FF4F8081281B16
:100AC000310941095109C9011F910F91FF90EF9020
:100AD0000895DF92EF92FF920F931F93FC01E48041
:100AE000F58006811781D1808081823048F480E0D2
:100AF00090E0A0E1B0E0E82AF92A0A2B1B2BA5C060
:100B0000843009F49FC0823021F4EE24FF24870151
:100B100005C0E114F1040105110519F4E0E0F0E06D
:100B200096C0628173819FEF623879070CF05BC0D9
:100B300022E83FEF261B370B2A3131052CF020E04D
:100B400030E040E050E02AC0B801A701022E04C006
:100B500076956795579547950A94D2F781E090E08E
:100B6000A0E0B0E004C0880F991FAA1FBB1F2A9500
:100B7000D2F70197A109B1098E219F21A023B123AA
:100B80000097A105B10521F081E090E0A0E0B0E080
:100B90009A01AB01282B392B4A2B5B2BDA01C901B7
:100BA0008F779070A070B07080349105A105B10569
:100BB00039F427FF09C0205C3F4F4F4F5F4F04C0FF
:100BC000215C3F4F4F4F5F4FE0E0F0E02030A0E06E
:100BD0003A07A0E04A07A0E45A0710F0E1E0F0E08D
:100BE00079018A0127C06038710564F5FB01E1587D
:100BF000FF4FD801C7018F779070A070B07080341C
:100C00009105A105B10539F4E7FE0DC080E490E03F
:100C1000A0E0B0E004C08FE390E0A0E0B0E0E80E18
:100C2000F91E0A1F1B1F17FF05C016950795F7949D
:100C3000E794319687E016950795F794E7948A959F
:100C4000D1F705C0EE24FF248701EFEFF0E06E2F0F
:100C5000679566276795902F9F77D794DD24D79463
:100C60008E2F8695492F462B582F5D29B701CA0133
:100C70001F910F91FF90EF90DF900895FC01DB0131
:100C8000408151812281622F6F7770E0221F2227DD
:100C9000221F9381892F880F822B282F30E0991FE4
:100CA0009927991F11969C93119721153105A9F544
:100CB000411551056105710511F482E037C082E8E4
:100CC0009FEF13969C938E9312979A01AB0167E066
:100CD000220F331F441F551F6A95D1F783E08C9371
:100CE0000DC0220F331F441F551F12968D919C91EA
:100CF0001397019713969C938E931297203080E060
:100D0000380780E0480780E4580758F314962D937D
:100D10003D934D935C93179708952F3F310579F4D8
:100D2000411551056105710519F484E08C9308950E
:100D300064FF03C081E08C9312C01C9210C02F5737
:100D4000304013963C932E93129783E08C9387E068
:100D5000440F551F661F771F8A95D1F7706414964C
:100D60004D935D936D937C93179708951F93DC01CA
:100D7000FB019C91923008F447C08081823008F4D6
:100D800043C0943051F411961C91843099F58181BF
:100D9000682F70E0611B71093FC0843021F09230F0
:100DA00031F48230B9F18181882389F12DC0119607
:100DB0001C9111978230F1F081811817D9F41296A5
:100DC0002D913C911397828193818217930794F020
:100DD00028173907BCF014968D919D910D90BC9108
:100DE000A02D2481358146815781281739074A076C
:100DF0005B0718F4112341F00AC082179307A40778
:100E0000B50740F4112319F061E070E005C06FEF01
:100E10007FEF02C060E070E0CB011F910895DF9387
:100E2000CF93CDB7DEB7CF91DF910895DF93CF9306
:100E3000CDB7DEB7CF91DF910895DF93CF93CDB7D4
:100E4000DEB7CF91DF910895DF93CF93CDB7DEB7B3
:100E5000E6E5F0E084EA8083E6E5F0E0808188233F
:100E6000DCF7CF91DF910895DF93CF93CDB7DEB755
:100E7000E6E5F0E084E98083CF91DF910895DF9388
:100E8000CF930F92CDB7DEB78983E3E2F0E089819B
:100E90008083E6E5F0E084E88083E6E5F0E08081A9
:100EA0008823DCF70F90CF91DF910895DF93CF93E4
:100EB000CDB7DEB7E6E5F0E084E88083E6E5F0E074
:100EC00080818823DCF7E3E2F0E08081CF91DF913D
:100ED0000895DF93CF93CDB7DEB7E6E5F0E084EA7F
:100EE0008083E6E5F0E080818823DCF7CF91DF9115
:100EF0000895DF93CF930F92CDB7DEB789838981B1
:100F00008E7F0E943F070F90CF91DF910895DF936E
:100F1000CF930F92CDB7DEB78983898181600E941C
:100F20003F070F90CF91DF910895DF93CF93CDB717
:100F3000DEB7AFE5B0E0EFE5F0E0808180688C934C
:100F4000CF91DF910895DF93CF93CDB7DEB7AFE5B3
:100F5000B0E0EFE5F0E080818F778C93CF91DF9167
:100F60000895DF93CF93CDB7DEB781E060E041E035
:100F70000E94B70981E061E041E00E94B70981E089
:100F800062E041E00E94B70981E063E041E00E9435
:100F9000B70981E064E041E00E94B70981E065E0C3
:100FA00041E00E94B70982E060E040E00E94B7099A
:100FB00082E061E040E00E94B70982E062E040E048
:100FC0000E94B70982E063E040E00E94B70982E036
:100FD00060E041E00E94300882E061E041E00E9470
:100FE000300882E062E041E00E94300882E063E085
:100FF00041E00E94300882E064E041E00E94B709CD
:1010000082E065E041E00E94B70982E066E041E0ED
:101010000E94B70982E067E041E00E94B70983E0DF
:1010200060E041E00E94B70983E061E041E00E9496
:10103000B70983E062E041E00E94B70983E063E022
:1010400041E00E94B70983E064E041E00E94B709F3
:1010500083E065E041E00E94B709CF91DF910895F8
:10106000DF93CF93CDB7DEB727970FB6F894DEBFE7
:101070000FBECDBF89836A834B838B81882309F49C
:101080006FC08981282F30E03F832E838E819F811E
:101090008130910549F12E813F81223031052CF4B8
:1010A0008E819F81009761F0CEC02E813F812230DA
:1010B000310571F18E819F8183309105E9F1C3C0C3
:1010C000ABE3B0E0EBE3F0E08081482F8A81282F8A
:1010D00030E081E090E0022E02C0880F991F0A9450
:1010E000E2F7842B8C93AFC0A8E3B0E0E8E3F0E034
:1010F0008081482F8A81282F30E081E090E0022E05
:1011000002C0880F991F0A94E2F7842B8C939BC02E
:10111000A5E3B0E0E5E3F0E08081482F8A81282F45
:1011200030E081E090E0022E02C0880F991F0A94FF
:10113000E2F7842B8C9387C0A2E3B0E0E2E3F0E017
:101140008081482F8A81282F30E081E090E0022EB4
:1011500002C0880F991F0A94E2F7842B8C9373C006
:101160008981282F30E03D832C838C819D818130C3
:10117000910559F12C813D81223031052CF48C816F
:101180009D81009769F05FC02C813D81223031053F
:1011900089F18C819D818330910509F440C053C051
:1011A000ABE3B0E0EBE3F0E08081482F8A81282FA9
:1011B00030E081E090E0022E02C0880F991F0A946F
:1011C000E2F7809584238C933EC0A8E3B0E0E8E387
:1011D000F0E08081482F8A81282F30E081E090E084
:1011E000022E02C0880F991F0A94E2F7809584238B
:1011F0008C9329C0A5E3B0E0E5E3F0E08081482FBF
:101200008A81282F30E081E090E0022E02C0880F12
:10121000991F0A94E2F7809584238C9314C0A2E36B
:10122000B0E0E2E3F0E08081482F8A81282F30E0AF
:1012300081E090E0022E02C0880F991F0A94E2F725
:10124000809584238C9327960FB6F894DEBF0FBE4B
:10125000CDBFCF91DF910895DF93CF93CDB7DEB7A8
:1012600027970FB6F894DEBF0FBECDBF8A836B837E
:1012700019828A81282F30E03E832D834D815E8143
:101280004130510559F18D819E818230910534F4B0
:101290002D813E812115310569F05CC04D815E8153
:1012A0004230510579F18D819E818330910509F499
:1012B0003DC050C0E9E3F0E08081282F30E08B8111
:1012C000882F90E0A90102C0559547958A95E2F7CD
:1012D000CA018170898359815C833DC0E6E3F0E0F7
:1012E0008081282F30E08B81882F90E0A90102C0F7
:1012F000559547958A95E2F7CA018170898359818E
:101300005C8329C0E3E3F0E08081282F30E08B810B
:10131000882F90E0A90102C0559547958A95E2F77C
:10132000CA018170898359815C8315C0E0E3F0E0D4
:101330008081282F30E08B81882F90E0A90102C0A6
:10134000559547958A95E2F7CA018170898359813D
:101350005C8301C002C08C818F838F8127960FB67A
:10136000F894DEBF0FBECDBFCF91DF910895DF931C
:10137000CF93CDB7DEB727970FB6F894DEBF0FBE79
:10138000CDBF89836A834B838B81882309F46FC027
:101390008981282F30E03F832E838E819F81813089
:1013A000910549F12E813F81223031052CF48E8147
:1013B0009F81009761F0CEC02E813F8122303105A0
:1013C00071F18E819F8183309105E9F1C3C0AAE359
:1013D000B0E0EAE3F0E08081482F8A81282F30E0F6
:1013E00081E090E0022E02C0880F991F0A94E2F774
:1013F000842B8C93AFC0A7E3B0E0E7E3F0E08081FB
:10140000482F8A81282F30E081E090E0022E02C030
:10141000880F991F0A94E2F7842B8C939BC0A4E356
:10142000B0E0E4E3F0E08081482F8A81282F30E0AB
:1014300081E090E0022E02C0880F991F0A94E2F723
:10144000842B8C9387C0A1E3B0E0E1E3F0E08081DE
:10145000482F8A81282F30E081E090E0022E02C0E0
:10146000880F991F0A94E2F7842B8C9373C08981AB
:10147000282F30E03D832C838C819D818130910524
:1014800059F12C813D81223031052CF48C819D81D4
:10149000009769F05FC02C813D812230310589F1D0
:1014A0008C819D818330910509F440C053C0AAE32B
:1014B000B0E0EAE3F0E08081482F8A81282F30E015
:1014C00081E090E0022E02C0880F991F0A94E2F793
:1014D000809584238C933EC0A7E3B0E0E7E3F0E07F
:1014E0008081482F8A81282F30E081E090E0022E11
:1014F00002C0880F991F0A94E2F7809584238C9389
:1015000029C0A4E3B0E0E4E3F0E08081482F8A81C1
:10151000282F30E081E090E0022E02C0880F991F52
:101520000A94E2F7809584238C9314C0A1E3B0E081
:10153000E1E3F0E08081482F8A81282F30E081E0CC
:1015400090E0022E02C0880F991F0A94E2F780955E
:1015500084238C9327960FB6F894DEBF0FBECDBFC1
:10156000CF91DF910895DF93CF9300D000D0CDB716
:10157000DEB789836A838981282F30E03C832B83FF
:101580008B819C8181309105D1F02B813C8122306F
:1015900031052CF48B819C81009761F01EC02B815A
:1015A0003C812230310581F08B819C818330910513
:1015B00081F013C0EAE3F0E08A8180830EC0E7E3A4
:1015C000F0E08A81808309C0E4E3F0E08A818083CF
:1015D00004C0E1E3F0E08A8180830F900F900F90C8
:1015E0000F90CF91DF910895DF93CF9300D000D07B
:1015F000CDB7DEB789836A838981282F30E03C83A9
:101600002B838B819C8181309105D1F02B813C8192
:10161000223031052CF48B819C81009761F01EC033
:101620002B813C812230310581F08B819C8183307C
:10163000910581F013C0EBE3F0E08A8180830EC056
:10164000E8E3F0E08A81808309C0E5E3F0E08A8185
:10165000808304C0E2E3F0E08A8180830F900F90E2
:101660000F900F90CF91DF910895DF93CF9300D02B
:1016700000D0CDB7DEB789836A838981282F30E017
:101680003C832B838B819C818130910549F12B8197
:101690003C81223031052CF48B819C81009761F0D4
:1016A0005AC02B813C812230310571F18B819C81A4
:1016B00083309105E9F14FC0ABE3B0E0EBE3F0E03C
:1016C0008081482F8A81282F30E081E090E0022E2F
:1016D00002C0880F991F0A94E2F784278C933BC0BD
:1016E000A8E3B0E0E8E3F0E08081482F8A81282F6A
:1016F00030E081E090E0022E02C0880F991F0A942A
:10170000E2F784278C9327C0A5E3B0E0E5E3F0E09F
:101710008081482F8A81282F30E081E090E0022EDE
:1017200002C0880F991F0A94E2F784278C9313C094
:10173000A2E3B0E0E2E3F0E08081482F8A81282F25
:1017400030E081E090E0022E02C0880F991F0A94D9
:10175000E2F784278C930F900F900F900F90CF910A
:10176000DF910895DF93CF93CDB7DEB781E060E0DE
:1017700041E00E94B70981E061E041E00E94B709C1
:1017800081E062E041E00E94B70981E063E041E06E
:101790000E94B70981E064E041E00E94B70981E05E
:1017A00065E041E00E94B709CF91DF910895DF9392
:1017B000CF93CDB7DEB7E0970FB6F894DEBF0FBE7C
:1017C000CDBF8CA77EA76DA78DA59EA5853B910556
:1017D00020F084EB90E09EA78DA78DA59EA5CC015F
:1017E000A0E0B0E028EE33E040E050E0BC01CD01E5
:1017F0000E94201DDC01CB0124EB30E040E050E0F2
:10180000BC01CD010E943F1DDA01C90188519C4FE6
:101810009BA78AA781E089A78CA5282F30E038AB49
:101820002FA78FA598A98230910521F12FA538A95E
:101830002330310554F48FA598A90097B1F02FA556
:1018400038A92130310599F06AC18FA598A9843053
:101850009105B1F02FA538A92430310574F08FA57A
:1018600098A98530910579F05AC118A60EC081E07B
:1018700088A70BC082E088A708C083E088A705C0BE
:1018800084E088A702C085E088A71FA244C189A57B
:1018900068A541E00E9430088AA59BA5CC01A0E084
:1018A000B0E0BC01CD010E94A104DC01CB018BA3FF
:1018B0009CA3ADA3BEA36BA17CA18DA19EA12BEA8D
:1018C0003AEA4AE250E40E941702DC01CB018F8F12
:1018D00098A3A9A3BAA36F8D78A189A19AA120E0AA
:1018E00030E040E85FE30E941D0488231CF481E09F
:1018F0008E8F91C06F8D78A189A19AA120E030E0F0
:101900004FE753E40E94BD0318160CF07BC06BA197
:101910007CA18DA19EA120E030E04AE754E40E9422
:101920001103DC01CB018A8F9B8FAC8FBD8F6A8D39
:101930007B8D8C8D9D8D20E030E04AEF54E40E9439
:101940001702DC01CB018E8B9F8BA88FB98F6E891C
:101950007F89888D998D20E030E040E85FE30E9428
:101960001D0488232CF481E090E09D8B8C8B3FC07C
:101970006E897F89888D998D20E03FEF4FE757E48E
:101980000E94BD0318164CF56A8D7B8D8C8D9D8D44
:1019900020E030E040E251E40E941702DC01CB017C
:1019A000BC01CD010E944100DC01CB019D8B8C8BE1
:1019B0000FC088EC90E09B8B8A8B8A899B8901976A
:1019C000F1F79B8B8A8B8C899D8901979D8B8C8BE2
:1019D0008C899D89009769F724C06E897F89888DDD
:1019E000998D0E944100DC01CB019D8B8C8B8C89F1
:1019F0009D89998B888B888999890197F1F7998BB3
:101A0000888B0FC06F8D78A189A19AA10E94410097
:101A1000DC01CB018E8F8E8D8F878F858A95F1F7B4
:101A20008F8789A568A540E00E94300880E090E09B
:101A3000A0E9B1E48B879C87AD87BE876B857C85E9
:101A40008D859E8520E030E04AEF54E40E94170225
:101A5000DC01CB018F839887A987BA876F8178854E
:101A600089859A8520E030E040E85FE30E941D040C
:101A700088232CF481E090E09E838D833FC06F81AA
:101A8000788589859A8520E03FEF4FE757E40E94EB
:101A9000BD0318164CF56B857C858D859E8520E0F1
:101AA00030E040E251E40E941702DC01CB01BC01AE
:101AB000CD010E944100DC01CB019E838D830FC0CC
:101AC00088EC90E09C838B838B819C810197F1F75C
:101AD0009C838B838D819E8101979E838D838D81D5
:101AE0009E81009769F714C06F81788589859A85F2
:101AF0000E944100DC01CB019E838D838D819E81FC
:101B00009A83898389819A810197F1F79A838983DE
:101B10008FA18F5F8FA38FA1823308F4B8CEE09698
:101B20000FB6F894DEBF0FBECDBFCF91DF91089501
:101B3000DF93CF9300D0CDB7DEB78A83E2E3F0E046
:101B40008081898389818F7089838A81982F907F92
:101B50008981892B898383E069810E94F40A0F902F
:101B60000F90CF91DF910895DF93CF93CDB7DEB77C
:101B70006C970FB6F894DEBF0FBECDBF80E061E07A
:101B800041E00E94300880E090E0A0E8BFE3898F48
:101B90009A8FAB8FBC8F698D7A8D8B8D9C8D20E059
:101BA00030E04AEF54E40E941702DC01CB018D8B38
:101BB0009E8BAF8BB88F6D897E898F89988D20E041
:101BC00030E040E85FE30E941D0488232CF481E0AC
:101BD00090E09C8B8B8B3FC06D897E898F89988D1F
:101BE00020E03FEF4FE757E40E94BD0318164CF585
:101BF000698D7A8D8B8D9C8D20E030E040E251E440
:101C00000E941702DC01CB01BC01CD010E94410002
:101C1000DC01CB019C8B8B8B0FC088EC90E09A8B06
:101C2000898B89899A890197F1F79A8B898B8B899E
:101C30009C8901979C8B8B8B8B899C89009769F77A
:101C400014C06D897E898F89988D0E944100DC01C6
:101C5000CB019C8B8B8B8B899C89988B8F878F85F5
:101C600098890197F1F7988B8F8780E061E040E0D9
:101C70000E94300880E090E0A0E8BFE38B879C875B
:101C8000AD87BE876B857C858D859E8520E030E0A5
:101C90004AEF54E40E941702DC01CB018F8398873E
:101CA000A987BA876F81788589859A8520E030E099
:101CB00040E85FE30E941D0488232CF481E090E05B
:101CC0009E838D833FC06F81788589859A8520E0CA
:101CD0003FEF4FE757E40E94BD0318164CF56B85A4
:101CE0007C858D859E8520E030E040E251E40E94B5
:101CF0001702DC01CB01BC01CD010E944100DC01D7
:101D0000CB019E838D830FC088EC90E09C838B83F6
:101D10008B819C810197F1F79C838B838D819E81C0
:101D200001979E838D838D819E81009769F714C0F2
:101D30006F81788589859A850E944100DC01CB01FD
:101D40009E838D838D819E819A83898389819A81E7
:101D50000197F1F79A8389836C960FB6F894DEBFEA
:101D60000FBECDBFCF91DF9108950F931F93DF93E7
:101D7000CF93CDB7DEB7C755D0400FB6F894DEBFCE
:101D80000FBECDBFFE01E95AFF4F8083ABE3B0E049
:101D9000EBE3F0E080818E7F8C93ABE3B0E0EBE38C
:101DA000F0E080818D7F8C93A2E3B0E0E2E3F0E08D
:101DB0008081982F9F70FE01E95AFF4F8081807FBC
:101DC000892B8C93ABE3B0E0EBE3F0E080818260A1
:101DD0008C93FE01ED5AFF4F80E090E0A0E8BFE356
:101DE00080839183A283B3838E01015B1F4FFE0129
:101DF000ED5AFF4F60817181828193812BEA3AEA2B
:101E00004AE250E40E941702DC01CB01F801808312
:101E10009183A283B383FE01E15BFF4F60817181F7
:101E20008281938120E030E040E85FE30E941D045E
:101E3000882334F4FE01E25BFF4F81E08083E0C041
:101E4000FE01E15BFF4F608171818281938120E01F
:101E500030E04FE753E40E94BD0318160CF0C0C0F9
:101E6000FE01ED5AFF4F608171818281938120E0F4
:101E700030E04AE754E40E941103DC01CB01FE018B
:101E8000E65BFF4F80839183A283B3838E010A5B5D
:101E90001F4FFE01E65BFF4F60817181828193815C
:101EA00020E030E04AEF54E40E941702DC01CB014D
:101EB000F80180839183A283B383FE01EA5BFF4F25
:101EC000608171818281938120E030E040E85FE3AE
:101ED0000E941D04882344F4FE01EC5BFF4F81E067
:101EE00090E09183808364C0FE01EA5BFF4F6081D4
:101EF00071818281938120E03FEF4FE757E40E9498
:101F0000BD0318160CF043C0FE01E65BFF4F608175
:101F100071818281938120E030E040E251E40E94AF
:101F20001702DC01CB018E010C5B1F4FBC01CD0100
:101F30000E944100DC01CB01F801918380831FC026
:101F4000FE01EE5BFF4F88EC90E091838083FE0101
:101F5000EE5BFF4F808191810197F1F7FE01EE5B0F
:101F6000FF4F91838083DE01AC5BBF4FFE01EC5BD2
:101F7000FF4F80819181019711969C938E93FE0172
:101F8000EC5BFF4F808191810097D1F642C08E01BA
:101F90000C5B1F4FFE01EA5BFF4F60817181828104
:101FA00093810E944100DC01CB01F8019183808381
:101FB000DE01A05CBF4FFE01EC5BFF4F8081918191
:101FC00011969C938E93FE01E05CFF4F808191817E
:101FD0000197F1F7FE01E05CFF4F9183808319C008
:101FE0008E01025B1F4FFE01E15BFF4F608171813B
:101FF000828193810E944100DC01CB01F801808342
:10200000FE01E25BFF4F80818FAF8FAD8A95F1F7C4
:102010008FAFABE3B0E0EBE3F0E080818D7F8C939A
:1020200080E090E0A8E4B3E48BAF9CAFADAFBEAF6F
:102030006BAD7CAD8DAD9EAD2BEA3AEA4AE250E441
:102040000E941702DC01CB018FAB98AFA9AFBAAFEA
:102050006FA978AD89AD9AAD20E030E040E85FE34C
:102060000E941D0488231CF481E08EAB91C06FA9EF
:1020700078AD89AD9AAD20E030E04FE753E40E949F
:10208000BD0318160CF07BC06BAD7CAD8DAD9EAD65
:1020900020E030E04AE754E40E941103DC01CB0168
:1020A0008AAB9BABACABBDAB6AA97BA98CA99DA944
:1020B00020E030E04AEF54E40E941702DC01CB013B
:1020C0008EA79FA7A8ABB9AB6EA57FA588A999A934
:1020D00020E030E040E85FE30E941D0488232CF4F8
:1020E00081E090E09DA78CA73FC06EA57FA588A941
:1020F00099A920E03FEF4FE757E40E94BD0318166F
:102100004CF56AA97BA98CA99DA920E030E040E2AA
:1021100051E40E941702DC01CB01BC01CD010E94F9
:102120004100DC01CB019DA78CA70FC088EC90E09B
:102130009BA78AA78AA59BA50197F1F79BA78AA7CA
:102140008CA59DA501979DA78CA78CA59DA5009703
:1021500069F724C06EA57FA588A999A90E944100AE
:10216000DC01CB019DA78CA78CA59DA599A788A76D
:1021700088A599A50197F1F799A788A70FC06FA91E
:1021800078AD89AD9AAD0E944100DC01CB018EABE8
:102190008EA98FA38FA18A95F1F78FA3A2E3B0E058
:1021A000E2E3F0E08081282F2F70FE01E95AFF4F13
:1021B0008081882F90E082959295907F9827807FEC
:1021C0009827822B8C93ABE3B0E0EBE3F0E08081C7
:1021D00082608C9380E090E0A0E8BFE38BA39CA397
:1021E000ADA3BEA36BA17CA18DA19EA12BEA3AEA6F
:1021F0004AE250E40E941702DC01CB018F8F98A3C2
:10220000A9A3BAA36F8D78A189A19AA120E030E09B
:1022100040E85FE30E941D0488231CF481E08E8F58
:1022200091C06F8D78A189A19AA120E030E04FE79D
:1022300053E40E94BD0318160CF07BC06BA17CA177
:102240008DA19EA120E030E04AE754E40E941103F2
:10225000DC01CB018A8F9B8FAC8FBD8F6A8D7B8D0C
:102260008C8D9D8D20E030E04AEF54E40E941702EF
:10227000DC01CB018E8B9F8BA88FB98F6E897F89F4
:10228000888D998D20E030E040E85FE30E941D04D6
:1022900088232CF481E090E09D8B8C8B3FC06E896D
:1022A0007F89888D998D20E03FEF4FE757E40E94AA
:1022B000BD0318164CF56A8D7B8D8C8D9D8D20E0AD
:1022C00030E040E251E40E941702DC01CB01BC0186
:1022D000CD010E944100DC01CB019D8B8C8B0FC096
:1022E00088EC90E09B8B8A8B8A899B890197F1F718
:1022F0009B8B8A8B8C899D8901979D8B8C8B8C897C
:102300009D89009769F724C06E897F89888D998D92
:102310000E944100DC01CB019D8B8C8B8C899D89B7
:10232000998B888B888999890197F1F7998B888B8C
:102330000FC06F8D78A189A19AA10E944100DC0194
:10234000CB018E8F8E8D8F878F858A95F1F78F8742
:10235000ABE3B0E0EBE3F0E080818D7F8C9380E035
:1023600090E0A0E0B0E48B879C87AD87BE876B854B
:102370007C858D859E8520E030E04AEF54E40E9404
:102380001702DC01CB018F839887A987BA876F81F9
:10239000788589859A8520E030E040E85FE30E94F7
:1023A0001D0488232CF481E090E09E838D833FC040
:1023B0006F81788589859A8520E03FEF4FE757E464
:1023C0000E94BD0318164CF56B857C858D859E8516
:1023D00020E030E040E251E40E941702DC01CB0132
:1023E000BC01CD010E944100DC01CB019E838D83A5
:1023F0000FC088EC90E09C838B838B819C8101973C
:10240000F1F79C838B838D819E8101979E838D83C1
:102410008D819E81009769F714C06F8178858985C9
:102420009A850E944100DC01CB019E838D838D81C2
:102430009E819A83898389819A810197F1F79A8392
:102440008983C95ADF4F0FB6F894DEBF0FBECDBFE8
:10245000CF91DF911F910F9108950F931F93DF93F9
:10246000CF93CDB7DEB7C755D0400FB6F894DEBFD7
:102470000FBECDBFFE01E95AFF4F8083ABE3B0E052
:10248000EBE3F0E0808181608C93ABE3B0E0EBE3C1
:10249000F0E080818D7F8C93A2E3B0E0E2E3F0E096
:1024A0008081982F9F70FE01E95AFF4F8081807FC5
:1024B000892B8C93ABE3B0E0EBE3F0E080818260AA
:1024C0008C93FE01ED5AFF4F80E090E0A0E8BFE35F
:1024D00080839183A283B3838E01015B1F4FFE0132
:1024E000ED5AFF4F60817181828193812BEA3AEA34
:1024F0004AE250E40E941702DC01CB01F80180831C
:102500009183A283B383FE01E15BFF4F6081718100
:102510008281938120E030E040E85FE30E941D0467
:10252000882334F4FE01E25BFF4F81E08083E0C04A
:10253000FE01E15BFF4F608171818281938120E028
:1025400030E04FE753E40E94BD0318160CF0C0C002
:10255000FE01ED5AFF4F608171818281938120E0FD
:1025600030E04AE754E40E941103DC01CB01FE0194
:10257000E65BFF4F80839183A283B3838E010A5B66
:102580001F4FFE01E65BFF4F608171818281938165
:1025900020E030E04AEF54E40E941702DC01CB0156
:1025A000F80180839183A283B383FE01EA5BFF4F2E
:1025B000608171818281938120E030E040E85FE3B7
:1025C0000E941D04882344F4FE01EC5BFF4F81E070
:1025D00090E09183808364C0FE01EA5BFF4F6081DD
:1025E00071818281938120E03FEF4FE757E40E94A1
:1025F000BD0318160CF043C0FE01E65BFF4F60817F
:1026000071818281938120E030E040E251E40E94B8
:102610001702DC01CB018E010C5B1F4FBC01CD0109
:102620000E944100DC01CB01F801918380831FC02F
:10263000FE01EE5BFF4F88EC90E091838083FE010A
:10264000EE5BFF4F808191810197F1F7FE01EE5B18
:10265000FF4F91838083DE01AC5BBF4FFE01EC5BDB
:10266000FF4F80819181019711969C938E93FE017B
:10267000EC5BFF4F808191810097D1F642C08E01C3
:102680000C5B1F4FFE01EA5BFF4F6081718182810D
:1026900093810E944100DC01CB01F801918380838A
:1026A000DE01A05CBF4FFE01EC5BFF4F808191819A
:1026B00011969C938E93FE01E05CFF4F8081918187
:1026C0000197F1F7FE01E05CFF4F9183808319C011
:1026D0008E01025B1F4FFE01E15BFF4F6081718144
:1026E000828193810E944100DC01CB01F80180834B
:1026F000FE01E25BFF4F80818FAF8FAD8A95F1F7CE
:102700008FAFABE3B0E0EBE3F0E080818D7F8C93A3
:1027100080E090E0A8E4B3E48BAF9CAFADAFBEAF78
:102720006BAD7CAD8DAD9EAD2BEA3AEA4AE250E44A
:102730000E941702DC01CB018FAB98AFA9AFBAAFF3
:102740006FA978AD89AD9AAD20E030E040E85FE355
:102750000E941D0488231CF481E08EAB91C06FA9F8
:1027600078AD89AD9AAD20E030E04FE753E40E94A8
:10277000BD0318160CF07BC06BAD7CAD8DAD9EAD6E
:1027800020E030E04AE754E40E941103DC01CB0171
:102790008AAB9BABACABBDAB6AA97BA98CA99DA94D
:1027A00020E030E04AEF54E40E941702DC01CB0144
:1027B0008EA79FA7A8ABB9AB6EA57FA588A999A93D
:1027C00020E030E040E85FE30E941D0488232CF401
:1027D00081E090E09DA78CA73FC06EA57FA588A94A
:1027E00099A920E03FEF4FE757E40E94BD03181678
:1027F0004CF56AA97BA98CA99DA920E030E040E2B4
:1028000051E40E941702DC01CB01BC01CD010E9402
:102810004100DC01CB019DA78CA70FC088EC90E0A4
:102820009BA78AA78AA59BA50197F1F79BA78AA7D3
:102830008CA59DA501979DA78CA78CA59DA500970C
:1028400069F724C06EA57FA588A999A90E944100B7
:10285000DC01CB019DA78CA78CA59DA599A788A776
:1028600088A599A50197F1F799A788A70FC06FA927
:1028700078AD89AD9AAD0E944100DC01CB018EABF1
:102880008EA98FA38FA18A95F1F78FA3A2E3B0E061
:10289000E2E3F0E08081282F2F70FE01E95AFF4F1C
:1028A0008081882F90E082959295907F9827807FF5
:1028B0009827822B8C93ABE3B0E0EBE3F0E08081D0
:1028C00082608C9380E090E0A0E8BFE38BA39CA3A0
:1028D000ADA3BEA36BA17CA18DA19EA12BEA3AEA78
:1028E0004AE250E40E941702DC01CB018F8F98A3CB
:1028F000A9A3BAA36F8D78A189A19AA120E030E0A5
:1029000040E85FE30E941D0488231CF481E08E8F61
:1029100091C06F8D78A189A19AA120E030E04FE7A6
:1029200053E40E94BD0318160CF07BC06BA17CA180
:102930008DA19EA120E030E04AE754E40E941103FB
:10294000DC01CB018A8F9B8FAC8FBD8F6A8D7B8D15
:102950008C8D9D8D20E030E04AEF54E40E941702F8
:10296000DC01CB018E8B9F8BA88FB98F6E897F89FD
:10297000888D998D20E030E040E85FE30E941D04DF
:1029800088232CF481E090E09D8B8C8B3FC06E8976
:102990007F89888D998D20E03FEF4FE757E40E94B3
:1029A000BD0318164CF56A8D7B8D8C8D9D8D20E0B6
:1029B00030E040E251E40E941702DC01CB01BC018F
:1029C000CD010E944100DC01CB019D8B8C8B0FC09F
:1029D00088EC90E09B8B8A8B8A899B890197F1F721
:1029E0009B8B8A8B8C899D8901979D8B8C8B8C8985
:1029F0009D89009769F724C06E897F89888D998D9C
:102A00000E944100DC01CB019D8B8C8B8C899D89C0
:102A1000998B888B888999890197F1F7998B888B95
:102A20000FC06F8D78A189A19AA10E944100DC019D
:102A3000CB018E8F8E8D8F878F858A95F1F78F874B
:102A4000ABE3B0E0EBE3F0E080818D7F8C9380E03E
:102A500090E0A0E0B0E48B879C87AD87BE876B8554
:102A60007C858D859E8520E030E04AEF54E40E940D
:102A70001702DC01CB018F839887A987BA876F8102
:102A8000788589859A8520E030E040E85FE30E9400
:102A90001D0488232CF481E090E09E838D833FC049
:102AA0006F81788589859A8520E03FEF4FE757E46D
:102AB0000E94BD0318164CF56B857C858D859E851F
:102AC00020E030E040E251E40E941702DC01CB013B
:102AD000BC01CD010E944100DC01CB019E838D83AE
:102AE0000FC088EC90E09C838B838B819C81019745
:102AF000F1F79C838B838D819E8101979E838D83CB
:102B00008D819E81009769F714C06F8178858985D2
:102B10009A850E944100DC01CB019E838D838D81CB
:102B20009E819A83898389819A810197F1F79A839B
:102B30008983C95ADF4F0FB6F894DEBF0FBECDBFF1
:102B4000CF91DF911F910F910895DF93CF93CDB770
:102B5000DEB76C970FB6F894DEBF0FBECDBF80E036
:102B600090E0A0EAB1E4898F9A8FAB8FBC8F698D1A
:102B70007A8D8B8D9C8D20E030E04AEF54E40E94EA
:102B80001702DC01CB018D8B9E8BAF8BB88F6D89CB
:102B90007E898F89988D20E030E040E85FE30E94D5
:102BA0001D0488232CF481E090E09C8B8B8B3FC02C
:102BB0006D897E898F89988D20E03FEF4FE757E43C
:102BC0000E94BD0318164CF5698D7A8D8B8D9C8DF6
:102BD00020E030E040E251E40E941702DC01CB012A
:102BE000BC01CD010E944100DC01CB019C8B8B8B91
:102BF0000FC088EC90E09A8B898B89899A8901971C
:102C0000F1F79A8B898B8B899C8901979C8B8B8B95
:102C10008B899C89009769F714C06D897E898F899B
:102C2000988D0E944100DC01CB019C8B8B8B8B89A2
:102C30009C89988B8F878F8598890197F1F7988B5E
:102C40008F8780E060E041E00E94B70980E061E0AA
:102C500041E00E94B70983E060EF0E94B30A83E37A
:102C60000E94B50E82E30E94B50E88E20E94B50E66
:102C70008CE00E94B50E86E00E94B50E81E00E94B5
:102C8000B50E80E090E0A0E0B0E48B879C87AD8734
:102C9000BE876B857C858D859E8520E030E04AEF80
:102CA00054E40E941702DC01CB018F839887A98727
:102CB000BA876F81788589859A8520E030E040E881
:102CC0005FE30E941D0488232CF481E090E09E8342
:102CD0008D833FC06F81788589859A8520E03FEF9D
:102CE0004FE757E40E94BD0318164CF56B857C85B1
:102CF0008D859E8520E030E040E251E40E9417027D
:102D0000DC01CB01BC01CD010E944100DC01CB0103
:102D10009E838D830FC088EC90E09C838B838B8196
:102D20009C810197F1F79C838B838D819E81019714
:102D30009E838D838D819E81009769F714C06F817A
:102D4000788589859A850E944100DC01CB019E83AC
:102D50008D838D819E819A83898389819A81019750
:102D6000F1F79A8389836C960FB6F894DEBF0FBE95
:102D7000CDBFCF91DF910895DF93CF9300D0CDB732
:102D8000DEB79A8389830BC0E981FA81208189812A
:102D90009A8101969A838983822F0E942D12E9815C
:102DA000FA818081882381F70F900F90CF91DF9176
:102DB0000895DF93CF9300D000D0CDB7DEB78B83DB
:102DC0006C83198280E48A838B81823088F48C81C1
:102DD000803170F48B81282F30E0CE010196FC0108
:102DE000E20FF31F90818C81890F80680E94B50EDD
:102DF0000F900F900F900F90CF91DF910895DF9378
:102E0000CF93CDB7DEB72E970FB6F894DEBF0FBEC7
:102E1000CDBF81E00E94B50E80E090E0A0E0B0E47C
:102E20008B879C87AD87BE876B857C858D859E85CE
:102E300020E030E04AEF54E40E941702DC01CB01AD
:102E40008F839887A987BA876F81788589859A85C6
:102E500020E030E040E85FE30E941D0488232CF46A
:102E600081E090E09E838D833FC06F817885898566
:102E70009A8520E03FEF4FE757E40E94BD03181604
:102E80004CF56B857C858D859E8520E030E040E2A9
:102E900051E40E941702DC01CB01BC01CD010E946C
:102EA0004100DC01CB019E838D830FC088EC90E054
:102EB0009C838B838B819C810197F1F79C838B830F
:102EC0008D819E8101979E838D838D819E81009748
:102ED00069F714C06F81788589859A850E944100C1
:102EE000DC01CB019E838D838D819E819A838983B2
:102EF00089819A810197F1F79A8389832E960FB67B
:102F0000F894DEBF0FBECDBFCF91DF910895DF9360
:102F1000CF93CDB7DEB72F970FB6F894DEBF0FBEB5
:102F2000CDBF6C877D878E879F878DB79EB70897AB
:102F30000FB6F8949EBF0FBE8DBFEDB7FEB73196AA
:102F4000CE0101969183808380E690E09383828313
:102F50008C859D85AE85BF8584839583A683B78345
:102F60000E94981D8DB79EB708960FB6F8949EBF25
:102F70000FBE8DBFCE0101960E94BC162F960FB6D4
:102F8000F894DEBF0FBECDBFCF91DF910895DF93E0
:102F9000CF9300D0CDB7DEB71A821BC08A81882FAD
:102FA00090E0FC01E052FE4F908182E0692F40E00A
:102FB0000E94B7098A81882F90E0FC01E052FE4F01
:102FC000908182E0692F41E00E9430088A818F5F02
:102FD0008A838A81843010F319821BC08981882FEB
:102FE00090E0FC01EC51FE4F908182E0692F41E0BE
:102FF0000E94B7098981882F90E0FC01EC51FE4FB7
:10300000908182E0692F41E00E94300889818F5FC2
:1030100089838981843010F30F900F90CF91DF91D5
:103020000895DF93CF93CDB7DEB763970FB6F894CB
:10303000DEBF0FBECDBF198AD0C01F860FC08F85DF
:10304000882F90E0FC01EC51FE4F908182E0692FC7
:1030500041E00E9430088F858F5F8F878F85843095
:1030600070F38989882F90E0FC01EC51FE4F90812C
:1030700082E0692F40E00E9430081A8AA7C08A893E
:10308000882F90E0FC01E052FE4F908182E0692F92
:103090000E942C09888B8889882309F094C080E0DD
:1030A00090E0A0EAB1E48B879C87AD87BE876B85F3
:1030B0007C858D859E8520E030E04AEF54E40E94B7
:1030C0001702DC01CB018F839887A987BA876F81AC
:1030D000788589859A8520E030E040E85FE30E94AA
:1030E0001D0488232CF481E090E09E838D833FC0F3
:1030F0006F81788589859A8520E03FEF4FE757E417
:103100000E94BD0318164CF56B857C858D859E85C8
:1031100020E030E040E251E40E941702DC01CB01E4
:10312000BC01CD010E944100DC01CB019E838D8357
:103130000FC088EC90E09C838B838B819C810197EE
:10314000F1F79C838B838D819E8101979E838D8374
:103150008D819E81009769F714C06F81788589857C
:103160009A850E944100DC01CB019E838D838D8175
:103170009E819A83898389819A810197F1F79A8345
:1031800089838A89882F90E0FC01E052FE4F90816C
:1031900082E0692F0E942C09888B8889813089F709
:1031A0008A89482F50E08989282F30E0CA01880F8A
:1031B000991F880F991F820F931FFC01E053FE4F48
:1031C00080818B8B10C08A898F5F8A8B8A8984303B
:1031D00008F455CF89898F5F898B8989843008F4F9
:1031E0002CCF8FEF8B8B8B8963960FB6F894DEBF55
:1031F0000FBECDBFCF91DF910895DF93CF93CDB7B1
:10320000DEB761970FB6F894DEBF0FBECDBF988BC7
:103210008F87698B0E9424078F85988980709770AB
:10322000880F892F881F990B9195806A0E947907D2
:103230008F85882F90E00E943F078989882F90E032
:103240000E943F070E94340780E090E0A0E2B1E4D2
:103250008B879C87AD87BE876B857C858D859E859A
:1032600020E030E04AEF54E40E941702DC01CB0179
:103270008F839887A987BA876F81788589859A8592
:1032800020E030E040E85FE30E941D0488232CF436
:1032900081E090E09E838D833FC06F817885898532
:1032A0009A8520E03FEF4FE757E40E94BD031816D0
:1032B0004CF56B857C858D859E8520E030E040E275
:1032C00051E40E941702DC01CB01BC01CD010E9438
:1032D0004100DC01CB019E838D830FC088EC90E020
:1032E0009C838B838B819C810197F1F79C838B83DB
:1032F0008D819E8101979E838D838D819E81009714
:1033000069F714C06F81788589859A850E9441008C
:10331000DC01CB019E838D838D819E819A8389837D
:1033200089819A810197F1F79A83898361960FB613
:10333000F894DEBF0FBECDBFCF91DF910895DF932C
:10334000CF9300D00F92CDB7DEB79B838A830E94C4
:1033500024078A819B8180709770880F892F881F2E
:10336000990B9195806A0E9479078A81882F90E055
:103370000E943F070E9469078A819B818070977035
:10338000880F892F881F990B9195806A0E94870763
:103390000E94560789830E94340789810F900F90FD
:1033A0000F90CF91DF910895DF93CF93CDB7DEB724
:1033B00064970FB6F894DEBF0FBECDBF998B888B94
:1033C0007B8B6A8B4C8B1F868AC08F85282F30E0C1
:1033D00088899989A901480F591F8F85282F30E0C6
:1033E0008A899B89FC01E20FF31F2081CA01622FA9
:1033F0000E94FD1880E090E0A0E2B1E48B879C87FA
:10340000AD87BE876B857C858D859E8520E030E00D
:103410004AEF54E40E941702DC01CB018F839887A6
:10342000A987BA876F81788589859A8520E030E001
:1034300040E85FE30E941D0488232CF481E090E0C3
:103440009E838D833FC06F81788589859A8520E032
:103450003FEF4FE757E40E94BD0318164CF56B850C
:103460007C858D859E8520E030E040E251E40E941D
:103470001702DC01CB01BC01CD010E944100DC013F
:10348000CB019E838D830FC088EC90E09C838B835F
:103490008B819C810197F1F79C838B838D819E8129
:1034A00001979E838D838D819E81009769F714C05B
:1034B0006F81788589859A850E944100DC01CB0166
:1034C0009E838D838D819E819A83898389819A8150
:1034D0000197F1F79A8389838F858F5F8F879F8507
:1034E0008C89981708F471CF64960FB6F894DEBFF4
:1034F0000FBECDBFCF91DF9108950F931F93DF9340
:10350000CF9300D000D000D0CDB7DEB79B838A83A5
:103510007D836C834E83198216C08981282F30E009
:103520008C819D818C01020F131F8981282F30E02F
:103530008A819B81820F931F0E949F19F8018083CB
:1035400089818F5F898399818E81981730F32696C0
:103550000FB6F894DEBF0FBECDBFCF91DF911F91A4
:103560000F910895DF93CF93CDB7DEB7AE970FB627
:10357000F894DEBF0FBECDBF0E94B1070E94A51513
:1035800082E062E00E94D91684E690E00E94BC16B8
:103590000E94C7170E94B20B0E9411188CA78CA51D
:1035A0008F3FD1F30E94FF1686E790E00E94BC1681
:1035B0008CA50E942D128CA5282F30E03EA72DA7A8
:1035C0008DA59EA58433910509F442C02DA53EA585
:1035D0002533310594F48DA59EA58233910509F418
:1035E00049C02DA53EA5233331050CF067C08DA53C
:1035F0009EA581339105D1F0CFCF2DA53EA52633D1
:10360000310509F46DC08DA59EA5863391050CF496
:1036100043C02DA53EA52334310509F473C08DA503
:103620009EA58434910509F4F8C0B6CF8091E801D5
:10363000843B28F48091E801865F8093E8018091C3
:10364000E801282F30E080E0B9010E94D70BA4CF19
:103650008091E801882329F08091E8018A508093C5
:10366000E8018091E801282F30E080E0B9010E9454
:10367000D70B92CF8091E901843B28F48091E90136
:10368000865F8093E9018091E901282F30E081E095
:10369000B9010E94D70B80CF8091E901882329F0DE
:1036A0008091E9018A508093E9018091E901282FF6
:1036B00030E081E0B9010E94D70B6ECF8091EA0122
:1036C000843B28F48091EA01865F8093EA0180912F
:1036D000EA01282F30E082E0B9010E94D70B5CCFCD
:1036E0008091EA01882329F08091EA018A50809331
:1036F000EA018091EA01282F30E082E0B9010E94BE
:10370000D70B4ACF28EE31E080E090E0B90143E0EA
:103710000E94D41981E060E00E94D91680E890E010
:103720000E94BC1680E090E0AAE7B4E48FA398A7BB
:10373000A9A7BAA76FA178A589A59AA520E030E02E
:103740004AEF54E40E941702DC01CB018BA39CA337
:10375000ADA3BEA36BA17CA18DA19EA120E030E012
:1037600040E85FE30E941D0488232CF481E090E090
:103770009AA389A33FC06BA17CA18DA19EA120E04B
:103780003FEF4FE757E40E94BD0318164CF56FA1B9
:1037900078A589A59AA520E030E040E251E40E9496
:1037A0001702DC01CB01BC01CD010E944100DC010C
:1037B000CB019AA389A30FC088EC90E098A38F8FC8
:1037C0008F8D98A10197F1F798A38F8F89A19AA166
:1037D00001979AA389A389A19AA1009769F714C0B8
:1037E0006BA17CA18DA19EA10E944100DC01CB01B7
:1037F0009AA389A389A19AA19E8F8D8F8D8D9E8D6D
:103800000197F1F79E8F8D8F81E060E00E94D916BD
:1038100080E990E00E94BC16BFCE28EE31E080E047
:1038200090E0B90143E00E947D1A1BA682C08BA5DF
:10383000882F90E0FC01E851FE4F8081282F30E076
:103840008BA5B9010E94D70B80E090E0A8ECB2E410
:10385000898F9A8FAB8FBC8F698D7A8D8B8D9C8D64
:1038600020E030E04AEF54E40E941702DC01CB0173
:103870008D8B9E8BAF8BB88F6D897E898F89988D4C
:1038800020E030E040E85FE30E941D0488232CF430
:1038900081E090E09C8B8B8B3FC06D897E898F8906
:1038A000988D20E03FEF4FE757E40E94BD031816C4
:1038B0004CF5698D7A8D8B8D9C8D20E030E040E257
:1038C00051E40E941702DC01CB01BC01CD010E9432
:1038D0004100DC01CB019C8B8B8B0FC088EC90E00E
:1038E0009A8B898B89899A890197F1F79A8B898BB1
:1038F0008B899C8901979C8B8B8B8B899C890097EA
:1039000069F714C06D897E898F89988D0E94410066
:10391000DC01CB019C8B8B8B8B899C89988B8F874F
:103920008F8598890197F1F7988B8F878BA58F5F8B
:103930008BA78BA5833008F47ACF81E060E00E94EA
:10394000D91681EA90E00E94BC1680E090E0AAE7D8
:10395000B4E48B879C87AD87BE876B857C858D851E
:103960009E8520E030E04AEF54E40E941702DC011B
:10397000CB018F839887A987BA876F8178858985DE
:103980009A8520E030E040E85FE30E941D04882330
:103990002CF481E090E09E838D833FC06F81788519
:1039A00089859A8520E03FEF4FE757E40E94BD03E9
:1039B00018164CF56B857C858D859E8520E030E062
:1039C00040E251E40E941702DC01CB01BC01CD01B1
:1039D0000E944100DC01CB019E838D830FC088ECE7
:1039E00090E09C838B838B819C810197F1F79C8372
:1039F0008B838D819E8101979E838D838D819E8196
:103A0000009769F714C06F81788589859A850E942F
:103A10004100DC01CB019E838D838D819E819A8341
:103A2000898389819A810197F1F79A83898381E05B
:103A300060E00E94D91684EB90E00E94BC16ACCDE9
:103A4000629FD001739FF001829FE00DF11D649F82
:103A5000E00DF11D929FF00D839FF00D749FF00D0E
:103A6000659FF00D9927729FB00DE11DF91F639FAF
:103A7000B00DE11DF91FBD01CF0111240895A1E290
:103A80001A2EAA1BBB1BFD010DC0AA1FBB1FEE1FD8
:103A9000FF1FA217B307E407F50720F0A21BB30B23
:103AA000E40BF50B661F771F881F991F1A9469F79F
:103AB00060957095809590959B01AC01BD01CF01FB
:103AC00008952F923F924F925F926F927F928F92C2
:103AD0009F92AF92BF92CF92DF92EF92FF920F939D
:103AE0001F93CF93DF93CDB7DEB7CA1BDB0B0FB6A7
:103AF000F894DEBF0FBECDBF09942A883988488864
:103B00005F846E847D848C849B84AA84B984C884F9
:103B1000DF80EE80FD800C811B81AA81B981CE0FF0
:103B2000D11D0FB6F894DEBF0FBECDBFED010895D5
:103B3000AEE0B0E0EEE9FDE10C946F1D0D891E8949
:103B400086E08C831A8309838FEF9FE79E838D83A2
:103B50009E01275E3F4FCE0101966F89788DA901A6
:103B60000E94BC1D2F813885020F131FF80110829F
:103B70002E96E4E00C948B1DABE0B0E0E2ECFDE1AE
:103B80000C94611D3C012B015A01FC011782168225
:103B9000838181FD03C06FEF7FEFC6C19AE0892E5C
:103BA0001E010894211C311CF3012381F20123FD25
:103BB000859123FF81912F01882309F4B2C18532B9
:103BC00039F423FD859123FF81912F01853229F45A
:103BD00090E0B3010E94AF1FE7CF982FFF24EE249F
:103BE0009924FFE1FF15D0F09B3269F09C3228F454
:103BF000903259F0933291F40EC09D3249F09033D7
:103C000069F441E024C052E0F52A84E0F82A28C093
:103C100098E0F92A25C0E0E1FE2A22C0F7FC29C07D
:103C2000892F80538A3070F4F6FE05C0989C902C42
:103C30001124980E15C0E89CE02C1124E80EF0E247
:103C4000FF2A0EC09E3229F4F6FC6BC140E4F42A30
:103C500007C09C3619F450E8F52A02C0983649F49A
:103C6000F20123FD959123FF91912F01992309F0F2
:103C7000B8CF892F8554833018F08052833038F4C0
:103C800044E050E0A40EB51E5FE359830FC09336A5
:103C900031F0933779F0933509F056C020C0F50123
:103CA0008081898342E050E0A40EB51E610101E0ED
:103CB00010E012C0F501C080D180F6FC03C06FEFA8
:103CC0007FEF02C0692D70E042E050E0A40EB51E07
:103CD000C6010E94A41F8C015FE7F52214C0F50104
:103CE000C080D180F6FC03C06FEF7FEF02C0692D6A
:103CF00070E042E050E0A40EB51EC6010E94991F7C
:103D00008C0150E8F52AF3FE07C01AC080E290E06B
:103D1000B3010E94AF1FEA948E2D90E00817190797
:103D2000A8F30EC0F601F7FC8591F7FE81916F01B3
:103D300090E0B3010E94AF1FE110EA9401501040DF
:103D40000115110579F7EAC0943611F0993669F535
:103D5000F7FE08C0F501208131814281538184E062
:103D600090E00AC0F501808191819C01442737FDD4
:103D70004095542F82E090E0A80EB91E9FE6F922EC
:103D800057FF09C050954095309521953F4F4F4FB3
:103D90005F4FE0E8FE2ACA01B901A1012AE030E044
:103DA0000E94DB1FD82ED21840C0953729F41F2D52
:103DB0001F7E2AE030E01DC01F2D197F9F3661F065
:103DC000903720F4983509F0ACC00FC0903739F027
:103DD000983709F0A6C004C028E030E00AC010619E
:103DE00014FD146020E130E004C014FD166020E1F1
:103DF00032E017FF08C0F5016081718182819381F3
:103E000044E050E008C0F50180819181BC0180E070
:103E100090E042E050E0A40EB51EA1010E94DB1F1D
:103E2000D82ED2188FE7F82EF122F6FE0BC05EEFE7
:103E3000F522D91438F4F4FE07C0F2FC05C08FEE69
:103E4000F82202C01D2D01C0192DF4FE0DC0FE0187
:103E5000ED0DF11D8081803319F499EEF92208C02F
:103E60001F5FF2FE05C003C08F2D867809F01F5F2B
:103E70000F2DF3FC14C0F0FE0FC01E1510F09D2C8A
:103E80000BC09D2C9E0C911A1E2D06C080E290E066
:103E9000B3010E94AF1F1F5F1E15C0F304C01E15A3
:103EA00010F4E11A01C0EE2404FF0FC080E390E09B
:103EB000B3010E94AF1F02FF1DC001FD03C088E7D0
:103EC00090E00EC088E590E00BC0802F867891F0DE
:103ED00001FF02C08BE201C080E2F7FC8DE290E0BE
:103EE000B3010E94AF1F06C080E390E0B3010E94BF
:103EF000AF1F9A94D914C0F3DA94F101ED0DF11DBE
:103F0000808190E0B3010E94AF1FDD20A9F706C0B9
:103F100080E290E0B3010E94AF1FEA94EE20C1F767
:103F200043CEF30166817781CB012B96E2E10C94BD
:103F30007D1DFC010590615070400110D8F78095FF
:103F400090958E0F9F1F0895FC0161507040019065
:103F50000110D8F7809590958E0F9F1F08950F93AD
:103F60001F93CF93DF938C01EB018B8181FF1BC0EB
:103F700082FF0DC02E813F818C819D8128173907DA
:103F800064F4E881F9810193F983E88306C0E88548
:103F9000F985802F0995892B31F48E819F810196B7
:103FA0009F838E8302C00FEF1FEFC801DF91CF9177
:103FB0001F910F910895FA01AA27283051F120315D
:103FC00081F1E8946F936E7F6E5F7F4F8F4F9F4FAD
:103FD000AF4FB1E03ED0B4E03CD0670F781F891FEF
:103FE0009A1FA11D680F791F8A1F911DA11D6A0FBD
:103FF000711D811D911DA11D20D009F468943F9170
:104000002AE0269F11243019305D3193DEF6CF016E
:104010000895462F4770405D4193B3E00FD0C9F734
:10402000F6CF462F4F70405D4A3318F0495D31FDA1
:104030004052419302D0A9F7EACFB4E0A6959795F4
:10404000879577956795BA95C9F7009761057105CA
:1040500008959B01AC010A2E069457954795379514
:104060002795BA95C9F7620F731F841F951FA01D6E
:064070000895F894FFCF53
:10407600256C6400526F626F7469632041726D2013
:10408600526561647900507265737365643A200005
:10409600536176656420746F20454550524F4D003C
:1040A600202020202020202020202020202020200A
:1040B600004C6F616465642066726F6D20454550E3
:1040C600524F4D002020202020202020202020207C
:1040D60020202020202020000000000000000000FA
:1040E6000001020203030303040404040404040499
:1040F600050505050505050505050505050505056A
:104106000606060606060606060606060606060649
:104116000606060606060606060606060606060639
:104126000707070707070707070707070707070719
:104136000707070707070707070707070707070709
:1041460007070707070707070707070707070707F9
:1041560007070707070707070707070707070707E9
:1041660008080808080808080808080808080808C9
:1041760008080808080808080808080808080808B9
:1041860008080808080808080808080808080808A9
:104196000808080808080808080808080808080899
:1041A6000808080808080808080808080808080889
:1041B6000808080808080808080808080808080879
:1041C6000808080808080808080808080808080869
:1041D6000808080808080808080808080808080859
:1041E6003132334134353642373839432A30234465
:0C41F60000010203040506075A5A5A0093
:00000001FF
